:100000000C9434000C9449000C9449000C94490061
:100010000C9449000C9449000C9449000C9449003C
:100020000C9449000C9449000C9449000C9449002C
:100030000C9449000C9449000C9449000C9449001C
:100040000C9449000C9449000C9449000C9449000C
:100050000C9449000C9449000C9449000C944900FC
:100060000C9449000C94490011241FBECFEFD8E036
:10007000DEBFCDBF11E0A0E0B1E0E0E9F1E002C0F9
:1000800005900D92A236B107D9F70E9457000C9443
:10009000C6000C940000FC019191911101C00895DB
:1000A0008091C00085FFFCCF9093C600F5CFCF9321
:1000B000DF93CDB7DEB760970FB6F894DEBF0FBE03
:1000C000CDBF1092C50087E68093C40088E180937D
:1000D000C10086E08093C200259A80E091E00E94F2
:1000E0004B00E0E08091C00087FFFCCF8091C00012
:1000F00087FFFCCF8091C60090EE980F9F3520F0CF
:100100008D3011F08A3071F79091C00095FFFCCFCF
:100110008093C6008D3011F08A3019F581E090E0AF
:100120008C0F9D1F8E0F911DFC01108260E371E00A
:10013000CE0101960E94BD00892B21F42D9A83E304
:1001400091E0CDCF6EE371E0CE0101960E94BD003B
:10015000892B21F42D9882E491E0C1CF8EE491E0C7
:10016000BECFEF3008F0BECFA1E0B0E0AC0FBD1FB6
:10017000AE0FB11D8C93EF5FB5CFFB01DC018D910C
:10018000019080190110D9F3990B0895F894FFCFCD
:1001900053797374656D2052656164792E205479AA
:1001A0007065204F4E206F72204F464620616E646E
:1001B00020707265737320456E7465723A0D0A0083
:1001C0004F4E000D0A4C4544204F4E0D0A004F463D
:1001D00046000D0A4C4544204F46460D0A000D0AC4
:1001E000556E6B6E6F776E20636F6D6D616E640D13
:0201F0000A0003
:00000001FF
