:100000000C9434000C9446000C9446000C9446006A
:100010000C9446000C9446000C9446000C94460048
:100020000C9446000C9446000C9446000C94460038
:100030000C9446000C9446000C9448000C94460026
:100040000C9446000C9446000C9446000C94460018
:100050000C9446000C9446000C9446000C94460008
:100060000C9446000C94460011241FBECFEFD8E03C
:10007000DEBFCDBF21E0A0E0B1E001C01D92A830FD
:10008000B207E1F70E947B000C949E000C940000E4
:100090001F920F920FB60F9211248F93809104013B
:1000A0008F5F8A30B0F480930401809103018F5FE9
:1000B0008233A8F480930301809102018F5F84361C
:1000C000A0F4809302018F910F900FBE0F901F90AC
:1000D00018951092040181E080930701E6CF1092F9
:1000E000030181E080930601E7CF1092020181E0D5
:1000F00080930501E8CF8AB18C618AB982E084BD22
:1001000093E095BD99EF97BD80936E0078947894B5
:1001100080910701882319F0109207014A9A809173
:100120000601882319F0109206014B9A809105016F
:10013000882371F3109205014C9AEACFF894FFCF0F
:00000001FF
