:100000000C9434000C9446000C9446000C9446006A
:100010000C9446000C9446000C9446000C94460048
:100020000C9446000C9446000C9446000C94460038
:100030000C9446000C9446000C9448000C94460026
:100040000C9446000C9446000C9446000C94460018
:100050000C9446000C9446000C9446000C94460008
:100060000C9446000C94460011241FBECFEFD8E03C
:10007000DEBFCDBF21E0A0E0B1E001C01D92A830FD
:10008000B207E1F70E947B000C94F6000C9400008C
:100090001F920F920FB60F9211248F938091070138
:1000A0008F5F8A30B0F480930701809105018F5FE4
:1000B0008233A8F480930501809103018F5F843619
:1000C000A0F4809303018F910F900FBE0F901F90AB
:1000D00018951092070181E080930601E6CF1092F7
:1000E000050181E080930401E7CF1092030181E0D4
:1000F00080930201E8CF82E084BD93E095BD99EF43
:1001000097BD80936E007894219A809180008268D8
:1001100080938000809181008A61809381008FECC0
:1001200097E09093870080938600CC24CA94DC2CBF
:10013000E12CF12C809102018823E1F3109202015D
:1001400080910001909101018F3F9807C9F08C596F
:100150009F4F909301018093000120918600309180
:100160008700A0910001B09101010E94E700A70162
:1001700096010E94C5003093890020938800DACF51
:100180001092010110920001E8CFA1E21A2EAA1BE1
:10019000BB1BFD010DC0AA1FBB1FEE1FFF1FA21737
:1001A000B307E407F50720F0A21BB30BE40BF50B34
:1001B000661F771F881F991F1A9469F760957095BD
:1001C000809590959B01AC01BD01CF010895A29F40
:1001D000B001B39FC001A39F700D811D1124911D1B
:1001E000B29F700D811D1124911D0895F894FFCFC9
:00000001FF
